:1000000045C0000061C000005FC000005DC000008E
:100010005BC0000059C0000057C0000055C0000080
:1000200053C0000051C000004FC000004DC0000090
:100030004BC000002DC4000047C0000045C00000B8
:1000400043C0000041C0000073C400003DC0000078
:100050008FC3000039C0000037C0000035C0000069
:1000600033C0000031C000002FC000002DC00000D0
:10007000C6C4000029C0000027C0000025C0000041
:1000800023C0000021C000001FC0000011241FBEBB
:10009000CFEFD0E4DEBFCDBF11E0A0E0B1E0EEEDE8
:1000A000F5E100E00BBF02C007900D92A431B1074B
:1000B000D9F72DE0A4E1B1E001C01D92AA3FB2073B
:1000C000E1F73ED30C94ED0A9BCFCF92DF92EF92F3
:1000D000FF920F931F93CF93DF9300D000D000D0F7
:1000E000CDB7DEB719821A824B835C836D837E8322
:1000F000198209C0E981F0E0E050FF4F90E390835E
:1001000099819F5F998399819C30A0F398E8980F1B
:10011000923008F08DC0E0E0F1E080839DE39183B0
:100120009EE29583883761F4E7E2FDE046815781DE
:1001300060E070E04B835C836D837E839085998360
:10014000893761F4E7E2FDE081859285A0E0B0E0C7
:100150008B839C83AD83BE8383858983898140E1C2
:1001600068E071E090E00E94BA0A8981807F19F40A
:1001700080E380930901E0E0F1E08AE082878DE08E
:10018000838787E0898330C08B819C81AD81BE816C
:10019000892B8A2B8B2B59F18981853011F10981AB
:1001A00010E06B817C818D819E810F2EFAE0CF2E35
:1001B000D12CE12CF12CF02DA70196010E94980A78
:1001C000F801E050FF4F605D60836B817C818D8121
:1001D0009E81A70196010E94980A2B833C834D8340
:1001E0005E838981815089838981823068F61A8291
:1001F0001BC08091C0008072898304C08091C000C0
:100200008072898389818823C9F3E0ECF0E08081E2
:1002100080628083EA81F0E0E050FF4F808180932C
:10022000C6008A818F5F8A838A818C3010F308C070
:100230001A8203C08A818F5F8A838A818035D0F3D6
:1002400026960FB6F894DEBF0FBECDBFDF91CF91DB
:100250001F910F91FF90EF90DF90CF900895CF9373
:10026000DF9300D0CDB7DEB71A8219829BB19F7E93
:100270009BB92FEF30E792E0215030409040E1F7FA
:1002800000C00000EFE1FDE091E2908391E79183EF
:100290008283109219018A30D9F49091220D911124
:1002A00017C0A7E2BDE016962D913C9117973A83AF
:1002B000298329813A81248329813A81232F332775
:1002C0003A83298329813A81258318969C919683C4
:1002D0008A30E9F49091220D9130C9F4A7E2BDE093
:1002E00019962D913C911A973A83298329813A8155
:1002F000EFE1FDE0248329813A81232F33273A83DC
:10030000298329813A8125831B969C9196838B3082
:10031000E9F49091220D911119C0A7E2BDE0169663
:100320002D913C9117973A83298329813A81EFE1F6
:10033000FDE0248329813A81232F33273A832983BF
:1003400029813A81258318969C9196838B30E9F414
:100350009091220D9130C9F4A7E2BDE019962D913C
:100360003C911A973A83298329813A81EFE1FDE094
:10037000248329813A81232F33273A8329832981B2
:100380003A8125831B969C9196838530E9F4909160
:10039000220D911119C0A7E2BDE01C962D913C9150
:1003A0001D973A83298329813A81EFE1FDE0248377
:1003B00029813A81232F33273A83298329813A815E
:1003C00025831E969C9196838530E9F49091220DA9
:1003D0009130C9F4A7E2BDE01F962D913C91509752
:1003E0003A83298329813A81EFE1FDE02483298141
:1003F0003A81232F33273A83298329813A81258320
:1004000051969C91968390E08E569F4FEFE1FDE0D0
:100410002381820F911D2481820F911D2581820FDE
:10042000911D2681820F911D99279A838983898145
:100430009A818195878385B18E7F85B91092190144
:100440001EC08091C800807290E09A83898306C0A4
:100450008091C800807290E09A83898389819A8113
:10046000892BB1F3A8ECB0E08C9180628C938191E0
:100470008093CE00809119018F5F80931901809144
:1004800019018830F0F28091C800807490E09A835E
:10049000898306C08091C800807490E09A83898324
:1004A00089819A81892BB1F3E8ECF0E08081806248
:1004B0008083109219018FE39CE90197F1F700C046
:1004C00000008BB180618BB985B1816085B980E016
:1004D0000F900F90DF91CF91089590911801809126
:1004E0001901981739F08093180110921701109292
:1004F000160108958091160190911701019690932D
:100500001701809316010A9760F01092190110925A
:10051000180110921701109216018BB180618BB9EE
:10052000A895089590E01BC0A8952FEF35EA8EE0BE
:10053000215030408040E1F700C0000085B18E7F3F
:1005400085B9A8952FEF35EA8EE0215030408040E4
:10055000E1F700C0000085B1816085B99F5F9430EC
:1005600018F30895883719F0893721F10895E0913B
:100570001501F0E0A7E2BDE016968D919C911797CA
:10058000EE0FFF1FE756F24F91838083E091150134
:10059000F0E018968C91E752F24F8083809115011C
:1005A0008F5F8093150180911501803228F11092A0
:1005B00015010895E0911401F0E0A7E2BDE019965D
:1005C0008D919C911A97EE0FFF1FE75CF24F91837C
:1005D0008083E0911401F0E01B968C91E758F24F74
:1005E0008083809114018F5F8093140180911401A6
:1005F000803210F01092140108951F93CF93DF936F
:10060000CDB7DEB727970FB6F894DEBF0FBECDBFCC
:10061000182F19821A821B821C821D821E821F8241
:10062000893729F029ED3DE049E95DE004C029E77B
:100630003DE049E35DE01C821D821E821F8219821B
:1006400021C08981F901E80FF11D8081811117C056
:10065000E981F0E0EE0FFF1FE40FF51F608171816B
:100660008C819D81AE81BF81860F971FA11DB11D19
:100670008C839D83AE83BF838B818F5F8B838981C6
:100680008F5F898389818032E0F28B818C3110F118
:10069000183771F46C817D818E819F812B8130E0D0
:1006A00040E050E045D7E7E2FDE035872487168635
:1006B0001937C9F56C817D818E819F812B8130E056
:1006C00040E050E035D7E7E2FDE0308B2787118A24
:1006D00081E02CC0183789F4E7E2FDE0868197813C
:1006E000958784878B81803120F083E08093350D5E
:1006F00004C0E7E2FDE0808586871937B1F4E7E2C0
:10070000FDE081859285908B87878B81803128F0F1
:1007100083E08093380D80E009C0E7E2FDE0838547
:10072000818B80E003C081E001C080E027960FB696
:10073000F894DEBF0FBECDBFDF91CF911F9108951A
:10074000A8D584D5B7D5BFD5C7D5F894A895E0E688
:10075000F0E08081886180838FE08083E3DE8BB16D
:1007600080618BB910921901109218017894FFCF13
:100770001F920F920FB60F9211240BB60F922F9368
:100780003F934F935F936F937F938F939F93AF9319
:10079000BF93EF93FF9385B18D7F85B98091C6009C
:1007A0008D3621F118F48536C9F05CC08E3609F417
:1007B0003BC0883709F056C06091270D7091280D15
:1007C00080E090E0C4D523E333E34BEC50E425D63E
:1007D00092D5AB01BC0188E778DC44C04091290D7B
:1007E00050E060E070E085E670DC3CC020E030E086
:1007F000211586E03807B0F58091C0008072811124
:1008000004C08091C0008072FACFE0ECF0E08081FB
:1008100080628083F901E15EF84F8081805D809382
:10082000C6002F5F3F4FE4CF20E030E0211586E087
:100830003807C0F48091C0008072811104C080919B
:10084000C0008072FACFE0ECF0E0808180628083AB
:10085000F901E15EFE4F8081805D8093C6002F5FCD
:100860003F4FE4CF85B1826085B9FF91EF91BF9191
:10087000AF919F918F917F916F915F914F913F9138
:100880002F910F900BBE0F900FBE0F901F901895D9
:100890001F920F920FB60F9211240BB60F922F9347
:1008A0003F934F935F936F937F938F939F93AF93F8
:1008B000BF93EF93FF93A89580911C0190911D0128
:1008C000019690931D0180931C0180911C019091D1
:1008D0001D01449741F485B18E7F85B988E7D2D355
:1008E00085B1816085B980911C0190911D01889727
:1008F00060F085B18D7F85B910921D0110921C01A9
:1009000089E732D485B1826085B9FF91EF91BF91BB
:10091000AF919F918F917F916F915F914F913F9197
:100920002F910F900BBE0F900FBE0F901F90189538
:100930001F920F920FB60F9211240BB60F922F93A6
:100940003F934F935F936F937F938F939F93AF9357
:10095000BF93EF93FF93A89580911A0190911B018B
:10096000019690931B0180931A01803D934020F0E3
:1009700010921B0110921A01B0DD80911E01893581
:10098000F1F018F4883581F025C0883719F08937DF
:1009900031F020C088E731DE10921E011DC089E7CA
:1009A0002CDE10921E0118C0E7E2FDE086819781DF
:1009B000958784878085868710921E010DC0E7E2A7
:1009C000FDE081859285908B87878385818B10924E
:1009D0001E0102C010921E01FF91EF91BF91AF91D5
:1009E0009F918F917F916F915F914F913F912F9147
:1009F0000F900BBE0F900FBE0F901F9018951F9277
:100A00000F920FB60F9211240BB60F922F933F93B4
:100A10004F935F936F937F938F939F93AF93BF9306
:100A2000EF93FF93CF93DF931F92CDB7DEB7198279
:100A30008091C00089838981897109F076C0809195
:100A4000CE008983809119018F5F80931901809373
:100A5000C60080911901813029F48981853221F401
:100A600080E003C080E001C081E0882319F086E0C7
:100A70008093190180911901863008F056C08130A9
:100A800019F4998190931F0D823029F4898181375F
:100A900021F480E003C080E001C081E0882319F0E8
:100AA00086E08093190180911901823019F49981AF
:100AB0009093200D9DEF980F9330B8F5833019F483
:100AC00099819093210D843019F499819093220D8E
:100AD000853059F5EFE1FDE0828123819981382F3E
:100AE000320F930F9A5697831092190191111DC0DE
:100AF0008A3029F4211103C098E790931E018A30AF
:100B000029F4213019F499E790931E018B3029F4D0
:100B1000211103C098E590931E018B3029F42130F8
:100B200019F499E590931E019ADB0F90DF91CF9114
:100B3000FF91EF91BF91AF919F918F917F916F91B5
:100B40005F914F913F912F910F900BBE0F900FBE71
:100B50000F901F901895000000000000000000009A
:100B60000000000000000000000008950F931F9394
:100B7000CF93DF931F92CDB7DEB7198231B1E1E099
:100B8000F0E0DF0102C0AA0FBB1F8A95E2F78F01D8
:100B900002C0000F111F6A95E2F7CF0102C0880F53
:100BA000991F2A95E2F702C0EE0FFF1F4A95E2F760
:100BB000902F9A2B982BE92BE0953E23398399812E
:100BC000A82BA92BA983998191B992B1E923E98333
:100BD0009981892B8983898182B9BDDF80B10823FE
:100BE00009838981882311F080E001C081E00F90A2
:100BF000DF91CF911F910F910895693769F400B685
:100C000005FE05C0FC01E15EFE4F108205C021E03B
:100C1000FC01E15EFE4F2083683769F400B605FEF3
:100C200005C0FC01E15EF84F10820895FC01E15E11
:100C3000F84F21E0208308959F92AF92BF92CF9208
:100C4000DF92EF92FF920F931F93CF93DF9300D029
:100C50001F92CDB7DEB7C82E962EA22E1A82198209
:100C60001B8282B101E010E0780102C0EE0CFF1C93
:100C70004A95E2F7BE2C8E2982B96DDF82B1DE2C57
:100C8000D0948D2182B967DF82B102C0000F111F9D
:100C9000CA94E2F7C02E802B82B95DDF5CDF5BDF98
:100CA0001A82198237C082B18B2982B954DF53DF8F
:100CB00052DF51DF50DF82B19C2D9095892382B99C
:100CC0004ADF82B18D2182B946DF89819A818115FF
:100CD000964020F489819A816A2D8FDF89819A81DB
:100CE0008B3F954088F08B8181110EC034DF80B13D
:100CF0008B8381E090E0092C02C0880F991F0A9431
:100D0000E2F79B8189238B8326DF89819A81019673
:100D10009A83898389819A818C32974008F4C3CF62
:100D200082B1802B82B917DF82B1E82AE2B813DFE3
:100D300012DF11DF10DF82B10095082302B90BDF4B
:100D400084EE81B98BE182B98B81811181E00F90B2
:100D50000F900F90DF91CF911F910F91FF90EF9027
:100D6000DF90CF90BF90AF909F900895CF93DF9387
:100D7000CDB7DEB72A970FB6F894DEBF0FBECDBF52
:100D80001A8219821C821B821D821E8218861F8273
:100D90001A861986883739F4E7E2FDE01782168251
:100DA000118210821282893751F4E7E2FDE0128647
:100DB00011861482138215824FE151E002C04FE187
:100DC00057E01A86198697C0E985FA85E40FF51F62
:100DD000608161118AC029853A8538872F831A82FC
:100DE000198212C029853A852F5F3F4F3A8729879C
:100DF00029813A812F5F3F4F3A8329832B813C81A0
:100E00002F5F3F4F3C832B83E985FA85E40FF51F65
:100E1000908191110AC029813A812F33310528F43C
:100E200029853A8521153640E8F229813A81263014
:100E30003105A0F029813A812B30310578F49D816C
:100E40009F5F9D83883719F490E49093290D89372B
:100E500019F490E490932C0D1A82198229813A8119
:100E60002034310578F09E819F5F9E83883719F486
:100E700091E49093290D893709F098C081E480931B
:100E80002C0D94C029813A812B30310570F12981D4
:100E90003A812034310548F59E819F5F9E838837D3
:100EA00081F429813A81B901769567952F8138853A
:100EB000260F371F21503109E7E2FDE031832083FF
:100EC0001282893781F429813A81B9017695679533
:100ED0002F813885260F371F21503109E7E2FDE0C9
:100EE0003483238315821A82198229853A852F5FDC
:100EF0003F4F3A87298729853A852C3E354008F4AB
:100F000063CF883791F42B813C81232B71F02091A2
:100F1000270D3091280D232B41F46091290D61118B
:100F200004C085E38093290D41C0893791F42B815A
:100F30003C81232B71F020912A0D30912B0D232B16
:100F400041F460912C0D611104C085E380932C0D58
:100F50002DC02B813C812F35310518F49D819932AC
:100F600060F0883719F493E49093290D8937C9F418
:100F700083E480932C0D60E019C02B813C812F35D8
:100F8000310518F49E819B3070F0883719F492E493
:100F90009093290D893749F482E480932C0D60E009
:100FA00005C060E003C061E001C060E0862F2A96C2
:100FB0000FB6F894DEBF0FBECDBFDF91CF9108957D
:100FC0000F931F93CF93DF931F92CDB7DEB7683790
:100FD00019F0693729F04BC02091290D298303C0EE
:100FE00020912C0D29832981203491F18C30910599
:100FF00078F1813C25E0920758F5683719F0693798
:10100000A1F037C0BC0180E090E0A1D123E333E33D
:101010004BEC50E402D207E21DE06DD1F80177837A
:1010200066838981808781E027C0BC0180E090E0F1
:101030008ED123E333E34BEC50E4EFD107E21DE024
:101040005AD1F801728761878981838781E014C052
:10105000683719F0693731F00EC085E380932F0DA2
:1010600080E00AC085E38093320D80E005C080E017
:1010700003C081E001C080E00F90DF91CF911F910C
:101080000F910895CF93DF9300D0CDB7DEB71A82CA
:101090001982E7E2FDE012821086118210821A8224
:1010A00019820AC0E981FA81E15EF84F10828981D4
:1010B0009A8101969A83898389819A8181159640C4
:1010C00088F380E0D0D088B1816088B920910C018C
:1010D0004091F90D609111018091120147DD882343
:1010E00029F128E740910C016091110180911201D2
:1010F000A3DD8823B9F088B18E7F88B988B18D7F50
:1011000088B980B7806880BFEBE7F0E08081807BA2
:10111000808388E72BDE68E78091270D9091280D6A
:101120004FDF07C084E48093290D03C085E48093DA
:10113000290D86B190E09A83898389819A81817093
:1011400099279A83898389819A81892B31F088B183
:101150008E7F88B986E480932F0D88E703DA0F909D
:101160000F90DF91CF910895CF93DF9300D0CDB74B
:10117000DEB71A821982E7E2FDE015821386148237
:1011800013821A8219820AC0E981FA81E15EFE4F58
:10119000108289819A8101969A83898389819A81B3
:1011A0008115964088F383E05ED088B1826088B96B
:1011B00020910D0140910E0160910F01809110016D
:1011C000D5DC882329F129E740910D0160910F01B9
:1011D0008091100131DD8823B9F088B18D7F88B905
:1011E00088B18E7F88B980B7806880BFEBE7F0E078
:1011F0008081807B808389E7B9DD69E780912A0D52
:1012000090912B0DDDDE07C084E480932C0D03C08C
:1012100085E480932C0D86B190E09A83898389813F
:101220009A81827099279A83898389819A81892BEF
:1012300031F088B18D7F88B986E48093320D89E7DB
:1012400091D90F900F90DF91CF91089584B1836071
:1012500084B985B1836085B98AB180618AB98BB15F
:1012600080618BB9089590B79F7790BFEAE7F0E06F
:1012700090819F73908380937C00EBE7F0E0808106
:10128000806480838FE19EE40197F1F700C0000045
:101290000895109280008CE08093810089E698E1A7
:1012A0009093890080938800EFE6F0E0808182606F
:1012B0008083089588E98093C1001092C50087E675
:1012C0008093C400089584E085BD16BCEEE6F0E08E
:1012D00080818160808308951092C80088E980939E
:1012E000C90086E88093CA0083E08093CD0080E443
:1012F0008093CC00089570D088F09F5790F0B92F5C
:101300009927B751A0F0D1F0660F771F881F991F5A
:101310001AF0BA95C9F712C0B13081F077D0B1E0B8
:10132000089574C0672F782F8827B85F39F0B93FC8
:10133000CCF3869577956795B395D9F73EF490955C
:101340008095709561957F4F8F4F9F4F0895E894DA
:1013500009C097FB3EF490958095709561957F4FFD
:101360008F4F9F4F9923A9F0F92F96E9BB279395AB
:10137000F695879577956795B795F111F8CFFAF4BB
:10138000BB0F11F460FF1BC06F5F7F4F8F4F9F4FEC
:1013900016C0882311F096E911C0772321F09EE84A
:1013A000872F762F05C0662371F096E8862F70E0B0
:1013B00060E02AF09A95660F771F881FDAF7880F8A
:1013C0009695879597F9089557FD9058440F551FA6
:1013D00059F05F3F71F04795880F97FB991F61F0B7
:1013E0009F3F79F087950895121613061406551F2E
:1013F000F2CF4695F1DF08C0161617061806991F9A
:10140000F1CF86957105610508940895E894BB278E
:1014100066277727CB0197F908950BD078C069D05C
:1014200028F06ED018F0952309F05AC05FC011243F
:10143000EECFCADFA0F3959FD1F3950F50E0551F73
:10144000629FF001729FBB27F00DB11D639FAA2719
:10145000F00DB11DAA1F649F6627B00DA11D661F68
:10146000829F2227B00DA11D621F739FB00DA11D89
:10147000621F839FA00D611D221F749F3327A00D43
:10148000611D231F849F600D211D822F762F6A2FDF
:1014900011249F5750408AF0E1F088234AF0EE0F64
:1014A000FF1FBB1F661F771F881F91505040A9F771
:1014B0009E3F510570F014C0AACF5F3FECF3983EF9
:1014C000DCF3869577956795B795F795E7959F5FD8
:1014D000C1F7FE2B880F911D9695879597F9089572
:1014E00097F99F6780E870E060E008959FEF80ECD7
:1014F000089500240A94161617061806090608957A
:1015000000240A9412161306140605060895092EDF
:101510000394000C11F4882352F0BB0F40F4BF2B4E
:1015200011F460FF04C06F5F7F4F8F4F9F4F08958E
:10153000A1E21A2EAA1BBB1BFD010DC0AA1FBB1FD7
:10154000EE1FFF1FA217B307E407F50720F0A21B49
:10155000B30BE40BF50B661F771F881F991F1A94B6
:1015600069F760957095809590959B01AC01BD01E0
:10157000CF010895BB274A3031F4992322F4BDE20C
:10158000909581959F4F01C0BB27FB015527AA2746
:10159000880F991FAA1FA41710F0A41B8395505100
:1015A000B9F7A05DAA3308F0A95DA193009779F778
:1015B000B111B1931192CB0100C0DC01FC01672F86
:1015C00071917723E1F7329704C07C916D9370831A
:0E15D0006291AE17BF07C8F30895F894FFCFDD
:1015DE00783D3235362C393944430D0A070603045B
:0415EE0005010200F1
:00000001FF
